{
  "contractName": "WingsTracker",
  "abi": [
    {
      "inputs": [],
      "payable": false,
      "stateMutability": "nonpayable",
      "type": "constructor"
    },
    {
      "anonymous": false,
      "inputs": [
        {
          "indexed": false,
          "internalType": "address",
          "name": "soldierAddress",
          "type": "address"
        }
      ],
      "name": "JumpMasterAuthorized",
      "type": "event"
    },
    {
      "anonymous": false,
      "inputs": [
        {
          "indexed": true,
          "internalType": "address",
          "name": "previousOwner",
          "type": "address"
        },
        {
          "indexed": true,
          "internalType": "address",
          "name": "newOwner",
          "type": "address"
        }
      ],
      "name": "OwnershipTransferred",
      "type": "event"
    },
    {
      "anonymous": false,
      "inputs": [
        {
          "indexed": false,
          "internalType": "address",
          "name": "soldierAddress",
          "type": "address"
        }
      ],
      "name": "SoldierDelisted",
      "type": "event"
    },
    {
      "anonymous": false,
      "inputs": [
        {
          "indexed": false,
          "internalType": "uint256",
          "name": "soldierId",
          "type": "uint256"
        },
        {
          "indexed": false,
          "internalType": "address",
          "name": "soldierAddress",
          "type": "address"
        }
      ],
      "name": "SoldierEnlisted",
      "type": "event"
    },
    {
      "anonymous": false,
      "inputs": [
        {
          "indexed": false,
          "internalType": "uint256",
          "name": "establishmentId",
          "type": "uint256"
        },
        {
          "indexed": false,
          "internalType": "address",
          "name": "establishmentAddress",
          "type": "address"
        }
      ],
      "name": "TrainingEstablishmentIdentified",
      "type": "event"
    },
    {
      "anonymous": false,
      "inputs": [
        {
          "indexed": false,
          "internalType": "address",
          "name": "soldierAddress",
          "type": "address"
        }
      ],
      "name": "WingsIssued",
      "type": "event"
    },
    {
      "anonymous": false,
      "inputs": [
        {
          "indexed": false,
          "internalType": "address",
          "name": "soldierAddress",
          "type": "address"
        }
      ],
      "name": "WingsRevoked",
      "type": "event"
    },
    {
      "payable": false,
      "stateMutability": "nonpayable",
      "type": "fallback"
    },
    {
      "constant": true,
      "inputs": [
        {
          "internalType": "address",
          "name": "",
          "type": "address"
        }
      ],
      "name": "enlisted",
      "outputs": [
        {
          "internalType": "bool",
          "name": "",
          "type": "bool"
        }
      ],
      "payable": false,
      "stateMutability": "view",
      "type": "function"
    },
    {
      "constant": true,
      "inputs": [],
      "name": "isOwner",
      "outputs": [
        {
          "internalType": "bool",
          "name": "",
          "type": "bool"
        }
      ],
      "payable": false,
      "stateMutability": "view",
      "type": "function"
    },
    {
      "constant": true,
      "inputs": [
        {
          "internalType": "address",
          "name": "",
          "type": "address"
        }
      ],
      "name": "jumpMaster",
      "outputs": [
        {
          "internalType": "bool",
          "name": "",
          "type": "bool"
        }
      ],
      "payable": false,
      "stateMutability": "view",
      "type": "function"
    },
    {
      "constant": true,
      "inputs": [],
      "name": "owner",
      "outputs": [
        {
          "internalType": "address",
          "name": "",
          "type": "address"
        }
      ],
      "payable": false,
      "stateMutability": "view",
      "type": "function"
    },
    {
      "constant": false,
      "inputs": [],
      "name": "renounceOwnership",
      "outputs": [],
      "payable": false,
      "stateMutability": "nonpayable",
      "type": "function"
    },
    {
      "constant": true,
      "inputs": [
        {
          "internalType": "uint256",
          "name": "",
          "type": "uint256"
        }
      ],
      "name": "soldiers",
      "outputs": [
        {
          "internalType": "uint256",
          "name": "soldierId",
          "type": "uint256"
        },
        {
          "internalType": "address",
          "name": "soldierAddress",
          "type": "address"
        }
      ],
      "payable": false,
      "stateMutability": "view",
      "type": "function"
    },
    {
      "constant": true,
      "inputs": [
        {
          "internalType": "address",
          "name": "",
          "type": "address"
        }
      ],
      "name": "trainingEstablishment",
      "outputs": [
        {
          "internalType": "bool",
          "name": "",
          "type": "bool"
        }
      ],
      "payable": false,
      "stateMutability": "view",
      "type": "function"
    },
    {
      "constant": true,
      "inputs": [
        {
          "internalType": "uint256",
          "name": "",
          "type": "uint256"
        }
      ],
      "name": "trainingEstablishments",
      "outputs": [
        {
          "internalType": "uint256",
          "name": "establishmentId",
          "type": "uint256"
        },
        {
          "internalType": "address",
          "name": "establishmentAddress",
          "type": "address"
        }
      ],
      "payable": false,
      "stateMutability": "view",
      "type": "function"
    },
    {
      "constant": false,
      "inputs": [
        {
          "internalType": "address",
          "name": "newOwner",
          "type": "address"
        }
      ],
      "name": "transferOwnership",
      "outputs": [],
      "payable": false,
      "stateMutability": "nonpayable",
      "type": "function"
    },
    {
      "constant": true,
      "inputs": [
        {
          "internalType": "address",
          "name": "",
          "type": "address"
        }
      ],
      "name": "wings",
      "outputs": [
        {
          "internalType": "bool",
          "name": "",
          "type": "bool"
        }
      ],
      "payable": false,
      "stateMutability": "view",
      "type": "function"
    },
    {
      "constant": false,
      "inputs": [],
      "name": "terminateWingsTracker",
      "outputs": [],
      "payable": false,
      "stateMutability": "nonpayable",
      "type": "function"
    },
    {
      "constant": false,
      "inputs": [
        {
          "internalType": "address",
          "name": "soldierAddress",
          "type": "address"
        }
      ],
      "name": "enlistSoldier",
      "outputs": [],
      "payable": false,
      "stateMutability": "nonpayable",
      "type": "function"
    },
    {
      "constant": false,
      "inputs": [
        {
          "internalType": "address",
          "name": "soldierAddress",
          "type": "address"
        }
      ],
      "name": "delistSoldier",
      "outputs": [],
      "payable": false,
      "stateMutability": "nonpayable",
      "type": "function"
    },
    {
      "constant": false,
      "inputs": [
        {
          "internalType": "address",
          "name": "soldierAddress",
          "type": "address"
        }
      ],
      "name": "issueWings",
      "outputs": [],
      "payable": false,
      "stateMutability": "nonpayable",
      "type": "function"
    },
    {
      "constant": false,
      "inputs": [
        {
          "internalType": "address",
          "name": "soldierAddress",
          "type": "address"
        }
      ],
      "name": "revokeWings",
      "outputs": [],
      "payable": false,
      "stateMutability": "nonpayable",
      "type": "function"
    },
    {
      "constant": false,
      "inputs": [
        {
          "internalType": "address",
          "name": "establishmentAddress",
          "type": "address"
        }
      ],
      "name": "identifyTrainingEstablishment",
      "outputs": [],
      "payable": false,
      "stateMutability": "nonpayable",
      "type": "function"
    },
    {
      "constant": false,
      "inputs": [
        {
          "internalType": "address",
          "name": "soldierAddress",
          "type": "address"
        }
      ],
      "name": "assignJumpMaster",
      "outputs": [],
      "payable": false,
      "stateMutability": "nonpayable",
      "type": "function"
    }
  ],
  "bytecode": "0x608060405234801561001057600080fd5b5061001f6100df60201b60201c565b6000806101000a81548173ffffffffffffffffffffffffffffffffffffffff021916908373ffffffffffffffffffffffffffffffffffffffff1602179055506000809054906101000a900473ffffffffffffffffffffffffffffffffffffffff1673ffffffffffffffffffffffffffffffffffffffff16600073ffffffffffffffffffffffffffffffffffffffff167f8be0079c531659141344cd1fd0a4f28419497f9722a3daafe3b4186f6b6457e060405160405180910390a36100e7565b600033905090565b6119c2806100f66000396000f3fe608060405234801561001057600080fd5b506004361061010b5760003560e01c80638da5cb5b116100a2578063b909b68e11610071578063b909b68e146103dd578063d0fd513914610452578063f2937ca0146104ae578063f2fde38b14610523578063f611c26d146105675761010b565b80638da5cb5b146102d15780638f32d59b1461031b5780639ad4149b1461033d578063b8f1f045146103995761010b565b806342481896116100de57806342481896146101e3578063534d876014610227578063715018a61461026b57806371584006146102755761010b565b8063019f628d1461010d5780631c92ba8d14610151578063211f19711461015b57806326400dae1461019f575b005b61014f6004803603602081101561012357600080fd5b81019080803573ffffffffffffffffffffffffffffffffffffffff1690602001909291905050506105c3565b005b6101596106f3565b005b61019d6004803603602081101561017157600080fd5b81019080803573ffffffffffffffffffffffffffffffffffffffff169060200190929190505050610786565b005b6101e1600480360360208110156101b557600080fd5b81019080803573ffffffffffffffffffffffffffffffffffffffff169060200190929190505050610990565b005b610225600480360360208110156101f957600080fd5b81019080803573ffffffffffffffffffffffffffffffffffffffff169060200190929190505050610b1d565b005b6102696004803603602081101561023d57600080fd5b81019080803573ffffffffffffffffffffffffffffffffffffffff169060200190929190505050610d6a565b005b610273610f75565b005b6102b76004803603602081101561028b57600080fd5b81019080803573ffffffffffffffffffffffffffffffffffffffff1690602001909291905050506110ae565b604051808215151515815260200191505060405180910390f35b6102d96110ce565b604051808273ffffffffffffffffffffffffffffffffffffffff1673ffffffffffffffffffffffffffffffffffffffff16815260200191505060405180910390f35b6103236110f7565b604051808215151515815260200191505060405180910390f35b61037f6004803603602081101561035357600080fd5b81019080803573ffffffffffffffffffffffffffffffffffffffff169060200190929190505050611155565b604051808215151515815260200191505060405180910390f35b6103db600480360360208110156103af57600080fd5b81019080803573ffffffffffffffffffffffffffffffffffffffff169060200190929190505050611175565b005b610409600480360360208110156103f357600080fd5b8101908080359060200190929190505050611375565b604051808381526020018273ffffffffffffffffffffffffffffffffffffffff1673ffffffffffffffffffffffffffffffffffffffff1681526020019250505060405180910390f35b6104946004803603602081101561046857600080fd5b81019080803573ffffffffffffffffffffffffffffffffffffffff1690602001909291905050506113c6565b604051808215151515815260200191505060405180910390f35b6104da600480360360208110156104c457600080fd5b81019080803590602001909291905050506113e6565b604051808381526020018273ffffffffffffffffffffffffffffffffffffffff1673ffffffffffffffffffffffffffffffffffffffff1681526020019250505060405180910390f35b6105656004803603602081101561053957600080fd5b81019080803573ffffffffffffffffffffffffffffffffffffffff169060200190929190505050611437565b005b6105a96004803603602081101561057d57600080fd5b81019080803573ffffffffffffffffffffffffffffffffffffffff1690602001909291905050506114bd565b604051808215151515815260200191505060405180910390f35b6105d73360036114dd90919063ffffffff16565b61062c576040517f08c379a00000000000000000000000000000000000000000000000000000000081526004018080602001828103825260298152602001806119226029913960400191505060405180910390fd5b610635816115bb565b6001600660008373ffffffffffffffffffffffffffffffffffffffff1673ffffffffffffffffffffffffffffffffffffffff16815260200190815260200160002060006101000a81548160ff0219169083151502179055507fa1a0746f9ed69d855127a249ef8f15c32fdf2cc3519b22856eaf0af91d16603c81604051808273ffffffffffffffffffffffffffffffffffffffff1673ffffffffffffffffffffffffffffffffffffffff16815260200191505060405180910390a150565b6106fb6110f7565b61076d576040517f08c379a00000000000000000000000000000000000000000000000000000000081526004018080602001828103825260208152602001807f4f776e61626c653a2063616c6c6572206973206e6f7420746865206f776e657281525060200191505060405180910390fd5b3373ffffffffffffffffffffffffffffffffffffffff16ff5b60011515600860008373ffffffffffffffffffffffffffffffffffffffff1673ffffffffffffffffffffffffffffffffffffffff16815260200190815260200160002060009054906101000a900460ff1615151461084c576040517f08c379a00000000000000000000000000000000000000000000000000000000081526004018080602001828103825260138152602001807f446f6573204e6f7420486176652057696e67730000000000000000000000000081525060200191505060405180910390fd5b6108603360036114dd90919063ffffffff16565b6108d2576040517f08c379a000000000000000000000000000000000000000000000000000000000815260040180806020018281038252601b8152602001807f49735f4e6f745f415f547261696e696e675f417574686f72697479000000000081525060200191505060405180910390fd5b6000600860008373ffffffffffffffffffffffffffffffffffffffff1673ffffffffffffffffffffffffffffffffffffffff16815260200190815260200160002060006101000a81548160ff0219169083151502179055507f073d303ee4b04133b0e4a05c979be4b83a7038e3b342c45ac388ca7ef63200f781604051808273ffffffffffffffffffffffffffffffffffffffff1673ffffffffffffffffffffffffffffffffffffffff16815260200191505060405180910390a150565b60011515600760008373ffffffffffffffffffffffffffffffffffffffff1673ffffffffffffffffffffffffffffffffffffffff16815260200190815260200160002060009054906101000a900460ff16151514610a56576040517f08c379a00000000000000000000000000000000000000000000000000000000081526004018080602001828103825260108152602001807f416c72656164792044656c69737465640000000000000000000000000000000081525060200191505060405180910390fd5b610a5f816115d2565b6000600760008373ffffffffffffffffffffffffffffffffffffffff1673ffffffffffffffffffffffffffffffffffffffff16815260200190815260200160002060006101000a81548160ff0219169083151502179055507f9d634a5e8fbd4f7a57bd5d54404e498fae6c54fa27c38ca4a0ab4071f0ca583c81604051808273ffffffffffffffffffffffffffffffffffffffff1673ffffffffffffffffffffffffffffffffffffffff16815260200191505060405180910390a150565b60011515600760008373ffffffffffffffffffffffffffffffffffffffff1673ffffffffffffffffffffffffffffffffffffffff16815260200190815260200160002060009054906101000a900460ff1615151415610be4576040517f08c379a00000000000000000000000000000000000000000000000000000000081526004018080602001828103825260108152602001807f416c726561647920456e6c69737465640000000000000000000000000000000081525060200191505060405180910390fd5b60006004805490509050600460405180604001604052808381526020018473ffffffffffffffffffffffffffffffffffffffff16815250908060018154018082558091505090600182039060005260206000209060020201600090919290919091506000820151816000015560208201518160010160006101000a81548173ffffffffffffffffffffffffffffffffffffffff021916908373ffffffffffffffffffffffffffffffffffffffff160217905550505050610ca3826115e9565b6001600760008473ffffffffffffffffffffffffffffffffffffffff1673ffffffffffffffffffffffffffffffffffffffff16815260200190815260200160002060006101000a81548160ff0219169083151502179055507f81389e9105d6ae0460e43f1a1f9e998cd61e342737a59111c8fcfc33dc5473598183604051808381526020018273ffffffffffffffffffffffffffffffffffffffff1673ffffffffffffffffffffffffffffffffffffffff1681526020019250505060405180910390a15050565b60011515600860008373ffffffffffffffffffffffffffffffffffffffff1673ffffffffffffffffffffffffffffffffffffffff16815260200190815260200160002060009054906101000a900460ff1615151415610e31576040517f08c379a00000000000000000000000000000000000000000000000000000000081526004018080602001828103825260198152602001807f416c7265616479204265656e204973737565642057696e67730000000000000081525060200191505060405180910390fd5b610e453360026114dd90919063ffffffff16565b610eb7576040517f08c379a00000000000000000000000000000000000000000000000000000000081526004018080602001828103825260138152602001807f49735f4e6f745f415f4a756d704d61737465720000000000000000000000000081525060200191505060405180910390fd5b6001600860008373ffffffffffffffffffffffffffffffffffffffff1673ffffffffffffffffffffffffffffffffffffffff16815260200190815260200160002060006101000a81548160ff0219169083151502179055507f5fc561c2e0519e656008f1066305fa69d1b40502149698df2c864296840a7a9081604051808273ffffffffffffffffffffffffffffffffffffffff1673ffffffffffffffffffffffffffffffffffffffff16815260200191505060405180910390a150565b610f7d6110f7565b610fef576040517f08c379a00000000000000000000000000000000000000000000000000000000081526004018080602001828103825260208152602001807f4f776e61626c653a2063616c6c6572206973206e6f7420746865206f776e657281525060200191505060405180910390fd5b600073ffffffffffffffffffffffffffffffffffffffff166000809054906101000a900473ffffffffffffffffffffffffffffffffffffffff1673ffffffffffffffffffffffffffffffffffffffff167f8be0079c531659141344cd1fd0a4f28419497f9722a3daafe3b4186f6b6457e060405160405180910390a360008060006101000a81548173ffffffffffffffffffffffffffffffffffffffff021916908373ffffffffffffffffffffffffffffffffffffffff160217905550565b60086020528060005260406000206000915054906101000a900460ff1681565b60008060009054906101000a900473ffffffffffffffffffffffffffffffffffffffff16905090565b60008060009054906101000a900473ffffffffffffffffffffffffffffffffffffffff1673ffffffffffffffffffffffffffffffffffffffff16611139611600565b73ffffffffffffffffffffffffffffffffffffffff1614905090565b60096020528060005260406000206000915054906101000a900460ff1681565b61117d6110f7565b6111ef576040517f08c379a00000000000000000000000000000000000000000000000000000000081526004018080602001828103825260208152602001807f4f776e61626c653a2063616c6c6572206973206e6f7420746865206f776e657281525060200191505060405180910390fd5b60006005805490509050600560405180604001604052808381526020018473ffffffffffffffffffffffffffffffffffffffff16815250908060018154018082558091505090600182039060005260206000209060020201600090919290919091506000820151816000015560208201518160010160006101000a81548173ffffffffffffffffffffffffffffffffffffffff021916908373ffffffffffffffffffffffffffffffffffffffff1602179055505050506112ae82611608565b6001600960008473ffffffffffffffffffffffffffffffffffffffff1673ffffffffffffffffffffffffffffffffffffffff16815260200190815260200160002060006101000a81548160ff0219169083151502179055507f2dc1e067bcf1c76590d0b48a8e0d1669dce372cb6d9d53506f2177dc7674b1888183604051808381526020018273ffffffffffffffffffffffffffffffffffffffff1673ffffffffffffffffffffffffffffffffffffffff1681526020019250505060405180910390a15050565b6004818154811061138257fe5b90600052602060002090600202016000915090508060000154908060010160009054906101000a900473ffffffffffffffffffffffffffffffffffffffff16905082565b60076020528060005260406000206000915054906101000a900460ff1681565b600581815481106113f357fe5b90600052602060002090600202016000915090508060000154908060010160009054906101000a900473ffffffffffffffffffffffffffffffffffffffff16905082565b61143f6110f7565b6114b1576040517f08c379a00000000000000000000000000000000000000000000000000000000081526004018080602001828103825260208152602001807f4f776e61626c653a2063616c6c6572206973206e6f7420746865206f776e657281525060200191505060405180910390fd5b6114ba8161161f565b50565b60066020528060005260406000206000915054906101000a900460ff1681565b60008073ffffffffffffffffffffffffffffffffffffffff168273ffffffffffffffffffffffffffffffffffffffff161415611564576040517f08c379a000000000000000000000000000000000000000000000000000000000815260040180806020018281038252602281526020018061196c6022913960400191505060405180910390fd5b8260000160008373ffffffffffffffffffffffffffffffffffffffff1673ffffffffffffffffffffffffffffffffffffffff16815260200190815260200160002060009054906101000a900460ff16905092915050565b6115cf81600261176390919063ffffffff16565b50565b6115e681600161183e90919063ffffffff16565b50565b6115fd81600161176390919063ffffffff16565b50565b600033905090565b61161c81600361176390919063ffffffff16565b50565b600073ffffffffffffffffffffffffffffffffffffffff168173ffffffffffffffffffffffffffffffffffffffff1614156116a5576040517f08c379a00000000000000000000000000000000000000000000000000000000081526004018080602001828103825260268152602001806118fc6026913960400191505060405180910390fd5b8073ffffffffffffffffffffffffffffffffffffffff166000809054906101000a900473ffffffffffffffffffffffffffffffffffffffff1673ffffffffffffffffffffffffffffffffffffffff167f8be0079c531659141344cd1fd0a4f28419497f9722a3daafe3b4186f6b6457e060405160405180910390a3806000806101000a81548173ffffffffffffffffffffffffffffffffffffffff021916908373ffffffffffffffffffffffffffffffffffffffff16021790555050565b61176d82826114dd565b156117e0576040517f08c379a000000000000000000000000000000000000000000000000000000000815260040180806020018281038252601f8152602001807f526f6c65733a206163636f756e7420616c72656164792068617320726f6c650081525060200191505060405180910390fd5b60018260000160008373ffffffffffffffffffffffffffffffffffffffff1673ffffffffffffffffffffffffffffffffffffffff16815260200190815260200160002060006101000a81548160ff0219169083151502179055505050565b61184882826114dd565b61189d576040517f08c379a000000000000000000000000000000000000000000000000000000000815260040180806020018281038252602181526020018061194b6021913960400191505060405180910390fd5b60008260000160008373ffffffffffffffffffffffffffffffffffffffff1673ffffffffffffffffffffffffffffffffffffffff16815260200190815260200160002060006101000a81548160ff021916908315150217905550505056fe4f776e61626c653a206e6577206f776e657220697320746865207a65726f2061646472657373444f45535f4e4f545f484156455f545241494e494e475f45535441424c4953484d454e545f524f4c45526f6c65733a206163636f756e7420646f6573206e6f74206861766520726f6c65526f6c65733a206163636f756e7420697320746865207a65726f2061646472657373a265627a7a72315820006f9052afb6dd33af4b35ea6419815db4bd128256bbfac585e14772a5c0c48e64736f6c634300050c0032",
  "source": "pragma solidity >=0.5.0;\n\n// To Do:\n// 1. Define roles and access:\n//     Jump Master\n//     Paratrooper\n//     Issuing Authority\n// 2. Issue Canadian parachute wings to foreign paratrooper (based on 2/3) **how do I auto collect this info???\n//     a. Cdn parachute\n//     b. Cdn aircraft\n//     c. Dispatched by Cdn JM\n// 3. Verify issuance - anyone can put in a paratrooper ID and confirm they have received Canadian jump wings\n// 3a. Get details of the jump - DZ, Operation, Trg Ex, Date, Type of Aircraft, Type of Chute\n// 4. Real-time statistics:\n//     a. Total number of wings issued\n//     b. Total number of wings issued by country\n//     c. Total number of wings issued from time x to time y\n//     d. Graphical trend of issuances\n\n// import statements\nimport \"@openzeppelin/contracts/access/Roles.sol\";\nimport \"@openzeppelin/contracts/math/SafeMath.sol\";\nimport \"@openzeppelin/contracts/ownership/Ownable.sol\";\n\n// interfaces\n\n// libraries\n\n// Contracts\ncontract WingsTracker is Ownable {\n\n    using Roles for Roles.Role;\n    using SafeMath for uint256;\n\n    Roles.Role private _soldier;\n    Roles.Role private _jumpMaster;\n    Roles.Role private _trainingEstablishment;\n\n    // Type declarations\n\n    struct Soldier {\n        uint soldierId;\n        address soldierAddress;\n    }\n\n    struct TrainingEstablishment {\n        uint establishmentId;\n        address establishmentAddress;\n    }\n\n    // State variables\n\n    Soldier[] public soldiers;\n    TrainingEstablishment[] public trainingEstablishments;\n\n    mapping(address=>bool) public jumpMaster;\n    mapping(address=>bool) public enlisted;\n    mapping(address=>bool) public wings;\n    mapping(address=>bool) public trainingEstablishment;\n\n    // Events\n    event SoldierEnlisted(uint soldierId, address soldierAddress);\n    event SoldierDelisted(address soldierAddress);\n    event JumpMasterAuthorized(address soldierAddress);\n    event TrainingEstablishmentIdentified(uint establishmentId, address establishmentAddress);\n    event WingsIssued(address soldierAddress);\n    event WingsRevoked(address soldierAddress);\n\n    //Functions\n    constructor() public {\n    }\n\n    // kill the contract\n    function terminateWingsTracker() public onlyOwner {\n        selfdestruct(msg.sender);\n    }\n\n    function() external {\n        //...\n    }\n\n    // External functions\n    // ...\n\n    // External functions that are view\n    // ...\n\n    // External functions that are pure\n    // ...\n\n    // Public functions\n    // ...\n\n    // Creation Functions\n\n    // Enlist Soldier\n    function enlistSoldier(address soldierAddress) public {\n        require(enlisted[soldierAddress] != true, \"Already Enlisted\");\n        uint256 soldierId = soldiers.length; // generates unique soldierId\n        soldiers.push(Soldier(soldierId, soldierAddress));\n        _assignSoldierRole(soldierAddress);\n        enlisted[soldierAddress] = true;\n        emit SoldierEnlisted(soldierId, soldierAddress);\n    }\n\n    // Delist Soldier\n    function delistSoldier(address soldierAddress) public {\n        require(enlisted[soldierAddress] == true, \"Already Delisted\");\n        _removeSoldierRole(soldierAddress);\n        enlisted[soldierAddress] = false;\n        emit SoldierDelisted(soldierAddress);\n    }\n\n    function issueWings(address soldierAddress) public {\n        require(wings[soldierAddress] != true, 'Already Been Issued Wings');\n        require(_jumpMaster.has(msg.sender), \"Is_Not_A_JumpMaster\");\n        wings[soldierAddress] = true;\n        emit WingsIssued(soldierAddress);\n    }\n\n    function revokeWings(address soldierAddress) public {\n        require(wings[soldierAddress] == true, 'Does Not Have Wings');\n        require(_trainingEstablishment.has(msg.sender), \"Is_Not_A_Training_Authority\");\n        wings[soldierAddress] = false;\n        emit WingsRevoked(soldierAddress);\n    }\n\n    // Identify Training Establisment\n    function identifyTrainingEstablishment(address establishmentAddress) public onlyOwner {\n        uint256 establishmentId = trainingEstablishments.length; // generates unique establishmentId\n        trainingEstablishments.push(TrainingEstablishment(establishmentId, establishmentAddress));\n        _assignTrainingEstablishmentRole(establishmentAddress);\n        trainingEstablishment[establishmentAddress] = true;\n        emit TrainingEstablishmentIdentified(establishmentId, establishmentAddress);\n    }\n\n    function assignJumpMaster(address soldierAddress) public {\n        require(_trainingEstablishment.has(msg.sender), \"DOES_NOT_HAVE_TRAINING_ESTABLISHMENT_ROLE\");\n        _assignJumpMasterRole(soldierAddress);\n        jumpMaster[soldierAddress] = true;\n        emit JumpMasterAuthorized(soldierAddress);\n    }\n\n    // Internal functions\n    // ...\n    //\n\n    function _assignSoldierRole(address soldierAddress) internal {\n                _soldier.add(soldierAddress);\n    }\n\n    function _removeSoldierRole(address soldierAddress) internal {\n                _soldier.remove(soldierAddress);\n    }\n\n    // assign training establishment role\n    function _assignTrainingEstablishmentRole(address establishmentAddress) internal {\n                _trainingEstablishment.add(establishmentAddress);\n    }\n\n    function _removeTrainingEstablishmentRole(address establishmentAddress) internal {\n                _trainingEstablishment.remove(establishmentAddress);\n    }\n\n    // assign jump master role\n    function _assignJumpMasterRole(address soldierAddress) internal {\n                _jumpMaster.add(soldierAddress);\n    }\n\n    function _removeJumpMasterRole(address soldierAddress) internal {\n                _jumpMaster.remove(soldierAddress);\n    }\n\n\n    // Private functions\n    // ...\n\n}",
  "sourcePath": "/mnt/c/Users/aaron/Documents/Projects/ExCoelis/src/contracts/WingsTracker.sol",
  "compiler": {
    "name": "solc",
    "version": "0.5.12+commit.7709ece9.Emscripten.clang"
  },
  "schemaVersion": "3.0.18",
  "updatedAt": "2019-11-10T05:15:38.788Z",
  "networkType": "ethereum",
  "devdoc": {
    "methods": {
      "isOwner()": {
        "details": "Returns true if the caller is the current owner."
      },
      "owner()": {
        "details": "Returns the address of the current owner."
      },
      "renounceOwnership()": {
        "details": "Leaves the contract without owner. It will not be possible to call `onlyOwner` functions anymore. Can only be called by the current owner.     * NOTE: Renouncing ownership will leave the contract without an owner, thereby removing any functionality that is only available to the owner."
      },
      "transferOwnership(address)": {
        "details": "Transfers ownership of the contract to a new account (`newOwner`). Can only be called by the current owner."
      }
    }
  },
  "userdoc": {
    "methods": {}
  }
}